{
  "contractName": "ContentStorage",
  "abi": [
    {
      "anonymous": false,
      "inputs": [
        {
          "indexed": true,
          "internalType": "address",
          "name": "user",
          "type": "address"
        },
        {
          "indexed": false,
          "internalType": "string",
          "name": "version",
          "type": "string"
        },
        {
          "indexed": false,
          "internalType": "string",
          "name": "ccid",
          "type": "string"
        },
        {
          "indexed": false,
          "internalType": "uint256",
          "name": "time",
          "type": "uint256"
        }
      ],
      "name": "LikeAdded",
      "type": "event"
    },
    {
      "constant": true,
      "inputs": [
        {
          "internalType": "string",
          "name": "",
          "type": "string"
        }
      ],
      "name": "complexContents",
      "outputs": [
        {
          "internalType": "address",
          "name": "uploader",
          "type": "address"
        },
        {
          "internalType": "string",
          "name": "contentType",
          "type": "string"
        },
        {
          "internalType": "string",
          "name": "fileLink",
          "type": "string"
        },
        {
          "internalType": "uint256",
          "name": "ccidState",
          "type": "uint256"
        },
        {
          "internalType": "uint256",
          "name": "ccidPrice",
          "type": "uint256"
        },
        {
          "internalType": "uint256",
          "name": "time",
          "type": "uint256"
        },
        {
          "internalType": "uint256",
          "name": "updateTime",
          "type": "uint256"
        },
        {
          "internalType": "uint256",
          "name": "income",
          "type": "uint256"
        },
        {
          "internalType": "uint256",
          "name": "totalIncome",
          "type": "uint256"
        },
        {
          "internalType": "uint256",
          "name": "totalLikes",
          "type": "uint256"
        },
        {
          "internalType": "uint256",
          "name": "countBuyers",
          "type": "uint256"
        },
        {
          "internalType": "bool",
          "name": "isDelete",
          "type": "bool"
        }
      ],
      "payable": false,
      "stateMutability": "view",
      "type": "function"
    },
    {
      "constant": true,
      "inputs": [
        {
          "internalType": "address",
          "name": "",
          "type": "address"
        }
      ],
      "name": "tokens",
      "outputs": [
        {
          "internalType": "uint256",
          "name": "",
          "type": "uint256"
        }
      ],
      "payable": false,
      "stateMutability": "view",
      "type": "function"
    },
    {
      "constant": true,
      "inputs": [
        {
          "internalType": "address",
          "name": "",
          "type": "address"
        },
        {
          "internalType": "string",
          "name": "",
          "type": "string"
        }
      ],
      "name": "userLikeId",
      "outputs": [
        {
          "internalType": "bool",
          "name": "",
          "type": "bool"
        }
      ],
      "payable": false,
      "stateMutability": "view",
      "type": "function"
    },
    {
      "constant": true,
      "inputs": [
        {
          "internalType": "address",
          "name": "",
          "type": "address"
        },
        {
          "internalType": "uint256",
          "name": "",
          "type": "uint256"
        }
      ],
      "name": "userLikes",
      "outputs": [
        {
          "internalType": "string",
          "name": "version",
          "type": "string"
        },
        {
          "internalType": "uint256",
          "name": "time",
          "type": "uint256"
        }
      ],
      "payable": false,
      "stateMutability": "view",
      "type": "function"
    },
    {
      "constant": true,
      "inputs": [
        {
          "internalType": "string",
          "name": "",
          "type": "string"
        }
      ],
      "name": "versions",
      "outputs": [
        {
          "internalType": "string",
          "name": "refCc",
          "type": "string"
        },
        {
          "internalType": "address",
          "name": "uploader",
          "type": "address"
        },
        {
          "internalType": "uint256",
          "name": "versionState",
          "type": "uint256"
        },
        {
          "internalType": "uint256",
          "name": "versionPrice",
          "type": "uint256"
        },
        {
          "internalType": "uint256",
          "name": "likes",
          "type": "uint256"
        },
        {
          "internalType": "uint256",
          "name": "time",
          "type": "uint256"
        },
        {
          "internalType": "uint256",
          "name": "updateTime",
          "type": "uint256"
        },
        {
          "internalType": "uint256",
          "name": "income",
          "type": "uint256"
        },
        {
          "internalType": "bool",
          "name": "isDelete",
          "type": "bool"
        }
      ],
      "payable": false,
      "stateMutability": "view",
      "type": "function"
    },
    {
      "constant": false,
      "inputs": [
        {
          "internalType": "address",
          "name": "sender",
          "type": "address"
        },
        {
          "internalType": "string",
          "name": "_ccid",
          "type": "string"
        },
        {
          "internalType": "string",
          "name": "_version",
          "type": "string"
        },
        {
          "internalType": "string",
          "name": "_contentType",
          "type": "string"
        },
        {
          "internalType": "string",
          "name": "_fileLink",
          "type": "string"
        },
        {
          "internalType": "uint256",
          "name": "_ccidState",
          "type": "uint256"
        },
        {
          "internalType": "uint256",
          "name": "_ccidPrice",
          "type": "uint256"
        },
        {
          "internalType": "uint256",
          "name": "_time",
          "type": "uint256"
        },
        {
          "internalType": "string",
          "name": "_refCc",
          "type": "string"
        },
        {
          "internalType": "uint256",
          "name": "_versionState",
          "type": "uint256"
        },
        {
          "internalType": "uint256",
          "name": "_versionPrice",
          "type": "uint256"
        }
      ],
      "name": "ContentRegist",
      "outputs": [
        {
          "internalType": "bool",
          "name": "",
          "type": "bool"
        }
      ],
      "payable": false,
      "stateMutability": "nonpayable",
      "type": "function"
    },
    {
      "constant": true,
      "inputs": [
        {
          "internalType": "string",
          "name": "_ccid",
          "type": "string"
        }
      ],
      "name": "getComplexContent",
      "outputs": [
        {
          "components": [
            {
              "internalType": "string[]",
              "name": "version",
              "type": "string[]"
            },
            {
              "internalType": "address",
              "name": "uploader",
              "type": "address"
            },
            {
              "internalType": "string",
              "name": "contentType",
              "type": "string"
            },
            {
              "internalType": "string",
              "name": "fileLink",
              "type": "string"
            },
            {
              "internalType": "uint256",
              "name": "ccidState",
              "type": "uint256"
            },
            {
              "internalType": "uint256",
              "name": "ccidPrice",
              "type": "uint256"
            },
            {
              "internalType": "uint256",
              "name": "time",
              "type": "uint256"
            },
            {
              "internalType": "uint256",
              "name": "updateTime",
              "type": "uint256"
            },
            {
              "internalType": "uint256",
              "name": "income",
              "type": "uint256"
            },
            {
              "internalType": "uint256",
              "name": "totalIncome",
              "type": "uint256"
            },
            {
              "internalType": "uint256",
              "name": "totalLikes",
              "type": "uint256"
            },
            {
              "internalType": "uint256",
              "name": "countBuyers",
              "type": "uint256"
            },
            {
              "internalType": "bool",
              "name": "isDelete",
              "type": "bool"
            }
          ],
          "internalType": "struct ContentStorage.ComplexContent",
          "name": "",
          "type": "tuple"
        }
      ],
      "payable": false,
      "stateMutability": "view",
      "type": "function"
    },
    {
      "constant": true,
      "inputs": [
        {
          "internalType": "string",
          "name": "_version",
          "type": "string"
        }
      ],
      "name": "getComplexContentVersion",
      "outputs": [
        {
          "components": [
            {
              "internalType": "string",
              "name": "refCc",
              "type": "string"
            },
            {
              "internalType": "address",
              "name": "uploader",
              "type": "address"
            },
            {
              "internalType": "uint256",
              "name": "versionState",
              "type": "uint256"
            },
            {
              "internalType": "uint256",
              "name": "versionPrice",
              "type": "uint256"
            },
            {
              "internalType": "uint256",
              "name": "likes",
              "type": "uint256"
            },
            {
              "internalType": "uint256",
              "name": "time",
              "type": "uint256"
            },
            {
              "internalType": "uint256",
              "name": "updateTime",
              "type": "uint256"
            },
            {
              "internalType": "uint256",
              "name": "income",
              "type": "uint256"
            },
            {
              "internalType": "bool",
              "name": "isDelete",
              "type": "bool"
            }
          ],
          "internalType": "struct ContentStorage.Version",
          "name": "",
          "type": "tuple"
        }
      ],
      "payable": false,
      "stateMutability": "view",
      "type": "function"
    },
    {
      "constant": true,
      "inputs": [
        {
          "internalType": "string",
          "name": "_ccid",
          "type": "string"
        },
        {
          "internalType": "uint256",
          "name": "pos",
          "type": "uint256"
        }
      ],
      "name": "seeVersionPos",
      "outputs": [
        {
          "internalType": "string",
          "name": "version",
          "type": "string"
        }
      ],
      "payable": false,
      "stateMutability": "view",
      "type": "function"
    },
    {
      "constant": false,
      "inputs": [
        {
          "internalType": "address",
          "name": "sender",
          "type": "address"
        },
        {
          "internalType": "string",
          "name": "_ccid",
          "type": "string"
        },
        {
          "internalType": "string",
          "name": "_version",
          "type": "string"
        },
        {
          "internalType": "string",
          "name": "_referenceId",
          "type": "string"
        },
        {
          "internalType": "uint256",
          "name": "state",
          "type": "uint256"
        },
        {
          "internalType": "uint256",
          "name": "price",
          "type": "uint256"
        },
        {
          "internalType": "uint256",
          "name": "modifyTime",
          "type": "uint256"
        }
      ],
      "name": "contentUpdate",
      "outputs": [
        {
          "internalType": "bool",
          "name": "",
          "type": "bool"
        }
      ],
      "payable": false,
      "stateMutability": "nonpayable",
      "type": "function"
    },
    {
      "constant": false,
      "inputs": [
        {
          "internalType": "string",
          "name": "_ccid",
          "type": "string"
        },
        {
          "internalType": "uint256",
          "name": "_ccidState",
          "type": "uint256"
        },
        {
          "internalType": "uint256",
          "name": "_ccidPrice",
          "type": "uint256"
        },
        {
          "internalType": "uint256",
          "name": "_time",
          "type": "uint256"
        }
      ],
      "name": "modifyContent",
      "outputs": [
        {
          "internalType": "bool",
          "name": "",
          "type": "bool"
        }
      ],
      "payable": false,
      "stateMutability": "nonpayable",
      "type": "function"
    },
    {
      "constant": false,
      "inputs": [
        {
          "internalType": "string",
          "name": "_version",
          "type": "string"
        },
        {
          "internalType": "uint256",
          "name": "_versionState",
          "type": "uint256"
        },
        {
          "internalType": "uint256",
          "name": "_versionPrice",
          "type": "uint256"
        },
        {
          "internalType": "uint256",
          "name": "_time",
          "type": "uint256"
        }
      ],
      "name": "modifyVersionContent",
      "outputs": [
        {
          "internalType": "bool",
          "name": "",
          "type": "bool"
        }
      ],
      "payable": false,
      "stateMutability": "nonpayable",
      "type": "function"
    },
    {
      "constant": false,
      "inputs": [
        {
          "internalType": "string",
          "name": "_ccid",
          "type": "string"
        },
        {
          "internalType": "uint256",
          "name": "_time",
          "type": "uint256"
        }
      ],
      "name": "removeContent",
      "outputs": [
        {
          "internalType": "bool",
          "name": "",
          "type": "bool"
        }
      ],
      "payable": false,
      "stateMutability": "nonpayable",
      "type": "function"
    },
    {
      "constant": false,
      "inputs": [
        {
          "internalType": "string",
          "name": "_version",
          "type": "string"
        },
        {
          "internalType": "uint256",
          "name": "_time",
          "type": "uint256"
        }
      ],
      "name": "removeVersion",
      "outputs": [
        {
          "internalType": "bool",
          "name": "",
          "type": "bool"
        }
      ],
      "payable": false,
      "stateMutability": "nonpayable",
      "type": "function"
    },
    {
      "constant": false,
      "inputs": [
        {
          "internalType": "address",
          "name": "sender",
          "type": "address"
        },
        {
          "internalType": "string",
          "name": "_version",
          "type": "string"
        },
        {
          "internalType": "string",
          "name": "_ccid",
          "type": "string"
        },
        {
          "internalType": "uint256",
          "name": "_time",
          "type": "uint256"
        }
      ],
      "name": "AddLike",
      "outputs": [],
      "payable": false,
      "stateMutability": "nonpayable",
      "type": "function"
    },
    {
      "constant": true,
      "inputs": [
        {
          "internalType": "string",
          "name": "_version",
          "type": "string"
        }
      ],
      "name": "getLikes",
      "outputs": [
        {
          "internalType": "uint256",
          "name": "likes",
          "type": "uint256"
        }
      ],
      "payable": false,
      "stateMutability": "view",
      "type": "function"
    },
    {
      "constant": true,
      "inputs": [
        {
          "internalType": "string",
          "name": "_ccid",
          "type": "string"
        }
      ],
      "name": "getTotalLikes",
      "outputs": [
        {
          "internalType": "uint256",
          "name": "totalLikes",
          "type": "uint256"
        }
      ],
      "payable": false,
      "stateMutability": "view",
      "type": "function"
    },
    {
      "constant": true,
      "inputs": [
        {
          "internalType": "string",
          "name": "id",
          "type": "string"
        }
      ],
      "name": "checkContentExists",
      "outputs": [
        {
          "internalType": "bool",
          "name": "",
          "type": "bool"
        }
      ],
      "payable": false,
      "stateMutability": "view",
      "type": "function"
    },
    {
      "constant": true,
      "inputs": [
        {
          "internalType": "string",
          "name": "id",
          "type": "string"
        }
      ],
      "name": "checkVersionExists",
      "outputs": [
        {
          "internalType": "bool",
          "name": "",
          "type": "bool"
        }
      ],
      "payable": false,
      "stateMutability": "view",
      "type": "function"
    },
    {
      "constant": true,
      "inputs": [
        {
          "internalType": "string",
          "name": "_ccid",
          "type": "string"
        },
        {
          "internalType": "string",
          "name": "_version",
          "type": "string"
        }
      ],
      "name": "checkContentVersions",
      "outputs": [
        {
          "internalType": "bool",
          "name": "",
          "type": "bool"
        }
      ],
      "payable": false,
      "stateMutability": "view",
      "type": "function"
    },
    {
      "constant": true,
      "inputs": [
        {
          "internalType": "string",
          "name": "contentId",
          "type": "string"
        },
        {
          "internalType": "address",
          "name": "sender",
          "type": "address"
        }
      ],
      "name": "onlySeller",
      "outputs": [
        {
          "internalType": "bool",
          "name": "",
          "type": "bool"
        }
      ],
      "payable": false,
      "stateMutability": "view",
      "type": "function"
    },
    {
      "constant": true,
      "inputs": [
        {
          "internalType": "string",
          "name": "contentId",
          "type": "string"
        },
        {
          "internalType": "address",
          "name": "sender",
          "type": "address"
        }
      ],
      "name": "onlyBuyer",
      "outputs": [
        {
          "internalType": "bool",
          "name": "",
          "type": "bool"
        }
      ],
      "payable": false,
      "stateMutability": "view",
      "type": "function"
    },
    {
      "constant": true,
      "inputs": [
        {
          "internalType": "string",
          "name": "contentId",
          "type": "string"
        },
        {
          "internalType": "uint256",
          "name": "price",
          "type": "uint256"
        }
      ],
      "name": "checkPrice",
      "outputs": [
        {
          "internalType": "bool",
          "name": "",
          "type": "bool"
        }
      ],
      "payable": false,
      "stateMutability": "view",
      "type": "function"
    }
  ],
  "bytecode": "0x608060405234801561001057600080fd5b50612df2806100206000396000f3fe608060405234801561001057600080fd5b506004361061014d5760003560e01c806392251f20116100c3578063d94b947d1161007c578063d94b947d14610481578063de8ff9aa146104b1578063e4860339146104e1578063e976af3e14610511578063eea88ece14610541578063fedab324146105715761014d565b806392251f201461036a5780639264c965146103a5578063ab30fa26146103c1578063b4e6d2ba146103f1578063c798e89a14610421578063d59e91ad146104515761014d565b806365f827e01161011557806365f827e01461024a57806370905a881461027a57806374bfb003146102aa578063754ccf1c146102da578063767392031461030a5780637cfe400e1461033a5761014d565b806337bf10e3146101525780633a5fc0f2146101825780633f049263146101b25780635107f348146101e257806363cf768b1461021a575b600080fd5b61016c60048036036101679190810190611ef4565b6105a2565b6040516101799190612a0b565b60405180910390f35b61019c600480360361019791908101906123a7565b6105e7565b6040516101a99190612a0b565b60405180910390f35b6101cc60048036036101c791908101906122a6565b61063f565b6040516101d99190612bb5565b60405180910390f35b6101fc60048036036101f79190810190612265565b61067c565b60405161021199989796959493929190612a8d565b60405180910390f35b610234600480360361022f91908101906120b0565b6107a5565b6040516102419190612a0b565b60405180910390f35b610264600480360361025f91908101906122e7565b6108c6565b6040516102719190612a0b565b60405180910390f35b610294600480360361028f91908101906122e7565b6109b6565b6040516102a19190612a0b565b60405180910390f35b6102c460048036036102bf91908101906122a6565b610aa9565b6040516102d19190612bb5565b60405180910390f35b6102f460048036036102ef91908101906123a7565b610ae6565b6040516103019190612a0b565b60405180910390f35b610324600480360361031f9190810190611f48565b610b44565b6040516103319190612a0b565b60405180910390f35b610354600480360361034f91908101906123a7565b610d0c565b6040516103619190612a0b565b60405180910390f35b610384600480360361037f9190810190612265565b610d6a565b60405161039c9c9b9a99989796959493929190612943565b60405180910390f35b6103bf60048036036103ba9190810190612196565b610f3d565b005b6103db60048036036103d691908101906122a6565b611262565b6040516103e89190612a0b565b60405180910390f35b61040b600480360361040691908101906123a7565b611330565b6040516104189190612a26565b60405180910390f35b61043b600480360361043691908101906122a6565b611409565b6040516104489190612b71565b60405180910390f35b61046b600480360361046691908101906123fb565b611730565b6040516104789190612a0b565b60405180910390f35b61049b600480360361049691908101906122a6565b61177b565b6040516104a89190612a0b565b60405180910390f35b6104cb60048036036104c691908101906123fb565b611849565b6040516104d89190612a0b565b60405180910390f35b6104fb60048036036104f69190810190611ecb565b611894565b6040516105089190612bb5565b60405180910390f35b61052b6004803603610526919081019061233b565b6118ac565b6040516105389190612a0b565b60405180910390f35b61055b600480360361055691908101906122a6565b611992565b6040516105689190612b93565b60405180910390f35b61058b60048036036105869190810190612229565b611b1a565b604051610599929190612b21565b60405180910390f35b6003602052816000526040600020818051602081018201805184825260208301602085012081835280955050505050506000915091509054906101000a900460ff1681565b600080836040516105f89190612915565b90815260200160405180910390206005015482148061063757506001836040516106229190612915565b90815260200160405180910390206003015482145b905092915050565b600061064a82611262565b61065357600080fd5b6000826040516106639190612915565b9081526020016040518091039020600a01549050919050565b600181805160208101820180518482526020830160208501208183528095505050505050600091509050806000018054600181600116156101000203166002900480601f01602080910402602001604051908101604052809291908181526020018280546001816001161561010002031660029004801561073e5780601f106107135761010080835404028352916020019161073e565b820191906000526020600020905b81548152906001019060200180831161072157829003601f168201915b5050505050908060010160009054906101000a900473ffffffffffffffffffffffffffffffffffffffff16908060020154908060030154908060040154908060050154908060060154908060070154908060080160009054906101000a900460ff16905089565b6000806000886040516107b89190612915565b9081526020016040518091039020905080600001879080600181540180825580915050906001820390600052602060002001600090919290919091509080519060200190610807929190611bf0565b505082816007018190555060006001886040516108249190612915565b908152602001604051809103902090508681600001908051906020019061084c929190611bf0565b50898160010160006101000a81548173ffffffffffffffffffffffffffffffffffffffff021916908373ffffffffffffffffffffffffffffffffffffffff16021790555085816002018190555084816003018190555060008160040181905550838160050181905550600192505050979650505050505050565b600080836040516108d79190612915565b908152602001604051809103902060010160009054906101000a900473ffffffffffffffffffffffffffffffffffffffff1673ffffffffffffffffffffffffffffffffffffffff168273ffffffffffffffffffffffffffffffffffffffff1614806109ae575060018360405161094d9190612915565b908152602001604051809103902060010160009054906101000a900473ffffffffffffffffffffffffffffffffffffffff1673ffffffffffffffffffffffffffffffffffffffff168273ffffffffffffffffffffffffffffffffffffffff16145b905092915050565b600080836040516109c79190612915565b908152602001604051809103902060010160009054906101000a900473ffffffffffffffffffffffffffffffffffffffff1673ffffffffffffffffffffffffffffffffffffffff168273ffffffffffffffffffffffffffffffffffffffff1614158015610aa15750600183604051610a3f9190612915565b908152602001604051809103902060010160009054906101000a900473ffffffffffffffffffffffffffffffffffffffff1673ffffffffffffffffffffffffffffffffffffffff168273ffffffffffffffffffffffffffffffffffffffff1614155b905092915050565b6000610ab48261177b565b610abd57600080fd5b600182604051610acd9190612915565b9081526020016040518091039020600401549050919050565b600080600084604051610af99190612915565b90815260200160405180910390209050600181600c0160006101000a81548160ff02191690831515021790555060028160040181905550828160070181905550600191505092915050565b60008060008c604051610b579190612915565b90815260200160405180910390209050806000018b9080600181540180825580915050906001820390600052602060002001600090919290919091509080519060200190610ba6929190611bf0565b50508c8160010160006101000a81548173ffffffffffffffffffffffffffffffffffffffff021916908373ffffffffffffffffffffffffffffffffffffffff16021790555089816002019080519060200190610c03929190611bf0565b5088816003019080519060200190610c1c929190611bf0565b50868160050181905550878160040181905550858160060181905550858160070181905550600081600a0181905550600060018c604051610c5d9190612915565b9081526020016040518091039020905085816000019080519060200190610c85929190611bf0565b508d8160010160006101000a81548173ffffffffffffffffffffffffffffffffffffffff021916908373ffffffffffffffffffffffffffffffffffffffff160217905550848160020181905550838160030181905550600081600401819055508681600501819055508681600601819055506001925050509b9a5050505050505050505050565b600080600184604051610d1f9190612915565b9081526020016040518091039020905060018160080160006101000a81548160ff02191690831515021790555060028160020181905550828160060181905550600191505092915050565b6000818051602081018201805184825260208301602085012081835280955050505050506000915090508060010160009054906101000a900473ffffffffffffffffffffffffffffffffffffffff1690806002018054600181600116156101000203166002900480601f016020809104026020016040519081016040528092919081815260200182805460018160011615610100020316600290048015610e525780601f10610e2757610100808354040283529160200191610e52565b820191906000526020600020905b815481529060010190602001808311610e3557829003601f168201915b505050505090806003018054600181600116156101000203166002900480601f016020809104026020016040519081016040528092919081815260200182805460018160011615610100020316600290048015610ef05780601f10610ec557610100808354040283529160200191610ef0565b820191906000526020600020905b815481529060010190602001808311610ed357829003601f168201915b50505050509080600401549080600501549080600601549080600701549080600801549080600901549080600a01549080600b01549080600c0160009054906101000a900460ff1690508c565b828460001515600360008373ffffffffffffffffffffffffffffffffffffffff1673ffffffffffffffffffffffffffffffffffffffff16815260200190815260200160002083604051610f909190612915565b908152602001604051809103902060009054906101000a900460ff16151514610fb857600080fd5b600185604051610fc89190612915565b908152602001604051809103902060010160009054906101000a900473ffffffffffffffffffffffffffffffffffffffff1673ffffffffffffffffffffffffffffffffffffffff168673ffffffffffffffffffffffffffffffffffffffff161415611068576040517f08c379a000000000000000000000000000000000000000000000000000000000815260040161105f90612b51565b60405180910390fd5b6110718561177b565b61107a57600080fd5b61108384611262565b61108c57600080fd5b600260008773ffffffffffffffffffffffffffffffffffffffff1673ffffffffffffffffffffffffffffffffffffffff168152602001908152602001600020604051806040016040528087815260200185815250908060018154018082558091505090600182039060005260206000209060020201600090919290919091506000820151816000019080519060200190611127929190611c70565b50602082015181600101555050506001600360008873ffffffffffffffffffffffffffffffffffffffff1673ffffffffffffffffffffffffffffffffffffffff168152602001908152602001600020866040516111849190612915565b908152602001604051809103902060006101000a81548160ff021916908315150217905550600180866040516111ba9190612915565b90815260200160405180910390206004016000828254019250508190555060016000856040516111ea9190612915565b9081526020016040518091039020600a01600082825401925050819055508573ffffffffffffffffffffffffffffffffffffffff167fcd4231e2198a92b7d6d7b580b0d5eb6c6ac887044dc81daae7c87a06aa425d5c86868660405161125293929190612a48565b60405180910390a2505050505050565b600060606000836040516112769190612915565b90815260200160405180910390206003018054600181600116156101000203166002900480601f01602080910402602001604051908101604052809291908181526020018280546001816001161561010002031660029004801561131b5780601f106112f05761010080835404028352916020019161131b565b820191906000526020600020905b8154815290600101906020018083116112fe57829003601f168201915b50505050509050600081511415915050919050565b60606000836040516113429190612915565b9081526020016040518091039020600001828154811061135e57fe5b906000526020600020018054600181600116156101000203166002900480601f0160208091040260200160405190810160405280929190818152602001828054600181600116156101000203166002900480156113fc5780601f106113d1576101008083540402835291602001916113fc565b820191906000526020600020905b8154815290600101906020018083116113df57829003601f168201915b5050505050905092915050565b611411611cf0565b6000826040516114219190612915565b9081526020016040518091039020604051806101a001604052908160008201805480602002602001604051908101604052809291908181526020016000905b8282101561151c578382906000526020600020018054600181600116156101000203166002900480601f0160208091040260200160405190810160405280929190818152602001828054600181600116156101000203166002900480156115085780601f106114dd57610100808354040283529160200191611508565b820191906000526020600020905b8154815290600101906020018083116114eb57829003601f168201915b505050505081526020019060010190611460565b5050505081526020016001820160009054906101000a900473ffffffffffffffffffffffffffffffffffffffff1673ffffffffffffffffffffffffffffffffffffffff1673ffffffffffffffffffffffffffffffffffffffff168152602001600282018054600181600116156101000203166002900480601f0160208091040260200160405190810160405280929190818152602001828054600181600116156101000203166002900480156116135780601f106115e857610100808354040283529160200191611613565b820191906000526020600020905b8154815290600101906020018083116115f657829003601f168201915b50505050508152602001600382018054600181600116156101000203166002900480601f0160208091040260200160405190810160405280929190818152602001828054600181600116156101000203166002900480156116b55780601f1061168a576101008083540402835291602001916116b5565b820191906000526020600020905b81548152906001019060200180831161169857829003601f168201915b50505050508152602001600482015481526020016005820154815260200160068201548152602001600782015481526020016008820154815260200160098201548152602001600a8201548152602001600b8201548152602001600c820160009054906101000a900460ff1615151515815250509050919050565b6000806000866040516117439190612915565b908152602001604051809103902090508481600401819055508381600501819055508281600701819055506001915050949350505050565b6000606060018360405161178f9190612915565b90815260200160405180910390206000018054600181600116156101000203166002900480601f0160208091040260200160405190810160405280929190818152602001828054600181600116156101000203166002900480156118345780601f1061180957610100808354040283529160200191611834565b820191906000526020600020905b81548152906001019060200180831161181757829003601f168201915b50505050509050600081511415915050919050565b60008060018660405161185c9190612915565b908152602001604051809103902090508481600201819055508381600301819055508281600601819055506001915050949350505050565b60046020528060005260406000206000915090505481565b6000806000846040516118bf9190612915565b908152602001604051809103902060000180549050905060008090505b8181101561198557836040516020016118f59190612915565b6040516020818303038152906040528051906020012060008660405161191b9190612915565b9081526020016040518091039020600001828154811061193757fe5b90600052602060002001604051602001611951919061292c565b6040516020818303038152906040528051906020012014156119785760019250505061198c565b80806001019150506118dc565b5060009150505b92915050565b61199a611d70565b6001826040516119aa9190612915565b908152602001604051809103902060405180610120016040529081600082018054600181600116156101000203166002900480601f016020809104026020016040519081016040528092919081815260200182805460018160011615610100020316600290048015611a5d5780601f10611a3257610100808354040283529160200191611a5d565b820191906000526020600020905b815481529060010190602001808311611a4057829003601f168201915b505050505081526020016001820160009054906101000a900473ffffffffffffffffffffffffffffffffffffffff1673ffffffffffffffffffffffffffffffffffffffff1673ffffffffffffffffffffffffffffffffffffffff1681526020016002820154815260200160038201548152602001600482015481526020016005820154815260200160068201548152602001600782015481526020016008820160009054906101000a900460ff1615151515815250509050919050565b60026020528160005260406000208181548110611b3357fe5b906000526020600020906002020160009150915050806000018054600181600116156101000203166002900480601f016020809104026020016040519081016040528092919081815260200182805460018160011615610100020316600290048015611be05780601f10611bb557610100808354040283529160200191611be0565b820191906000526020600020905b815481529060010190602001808311611bc357829003601f168201915b5050505050908060010154905082565b828054600181600116156101000203166002900490600052602060002090601f016020900481019282601f10611c3157805160ff1916838001178555611c5f565b82800160010185558215611c5f579182015b82811115611c5e578251825591602001919060010190611c43565b5b509050611c6c9190611dd4565b5090565b828054600181600116156101000203166002900490600052602060002090601f016020900481019282601f10611cb157805160ff1916838001178555611cdf565b82800160010185558215611cdf579182015b82811115611cde578251825591602001919060010190611cc3565b5b509050611cec9190611dd4565b5090565b604051806101a0016040528060608152602001600073ffffffffffffffffffffffffffffffffffffffff168152602001606081526020016060815260200160008152602001600081526020016000815260200160008152602001600081526020016000815260200160008152602001600081526020016000151581525090565b60405180610120016040528060608152602001600073ffffffffffffffffffffffffffffffffffffffff1681526020016000815260200160008152602001600081526020016000815260200160008152602001600081526020016000151581525090565b611df691905b80821115611df2576000816000905550600101611dda565b5090565b90565b600081359050611e0881612d81565b92915050565b600082601f830112611e1f57600080fd5b8135611e32611e2d82612bfd565b612bd0565b91508082526020830160208301858383011115611e4e57600080fd5b611e59838284612d2e565b50505092915050565b600082601f830112611e7357600080fd5b8135611e86611e8182612c29565b612bd0565b91508082526020830160208301858383011115611ea257600080fd5b611ead838284612d2e565b50505092915050565b600081359050611ec581612d98565b92915050565b600060208284031215611edd57600080fd5b6000611eeb84828501611df9565b91505092915050565b60008060408385031215611f0757600080fd5b6000611f1585828601611df9565b925050602083013567ffffffffffffffff811115611f3257600080fd5b611f3e85828601611e0e565b9150509250929050565b60008060008060008060008060008060006101608c8e031215611f6a57600080fd5b6000611f788e828f01611df9565b9b505060208c013567ffffffffffffffff811115611f9557600080fd5b611fa18e828f01611e62565b9a505060408c013567ffffffffffffffff811115611fbe57600080fd5b611fca8e828f01611e62565b99505060608c013567ffffffffffffffff811115611fe757600080fd5b611ff38e828f01611e62565b98505060808c013567ffffffffffffffff81111561201057600080fd5b61201c8e828f01611e62565b97505060a061202d8e828f01611eb6565b96505060c061203e8e828f01611eb6565b95505060e061204f8e828f01611eb6565b9450506101008c013567ffffffffffffffff81111561206d57600080fd5b6120798e828f01611e62565b93505061012061208b8e828f01611eb6565b92505061014061209d8e828f01611eb6565b9150509295989b509295989b9093969950565b600080600080600080600060e0888a0312156120cb57600080fd5b60006120d98a828b01611df9565b975050602088013567ffffffffffffffff8111156120f657600080fd5b6121028a828b01611e62565b965050604088013567ffffffffffffffff81111561211f57600080fd5b61212b8a828b01611e62565b955050606088013567ffffffffffffffff81111561214857600080fd5b6121548a828b01611e62565b94505060806121658a828b01611eb6565b93505060a06121768a828b01611eb6565b92505060c06121878a828b01611eb6565b91505092959891949750929550565b600080600080608085870312156121ac57600080fd5b60006121ba87828801611df9565b945050602085013567ffffffffffffffff8111156121d757600080fd5b6121e387828801611e62565b935050604085013567ffffffffffffffff81111561220057600080fd5b61220c87828801611e62565b925050606061221d87828801611eb6565b91505092959194509250565b6000806040838503121561223c57600080fd5b600061224a85828601611df9565b925050602061225b85828601611eb6565b9150509250929050565b60006020828403121561227757600080fd5b600082013567ffffffffffffffff81111561229157600080fd5b61229d84828501611e0e565b91505092915050565b6000602082840312156122b857600080fd5b600082013567ffffffffffffffff8111156122d257600080fd5b6122de84828501611e62565b91505092915050565b600080604083850312156122fa57600080fd5b600083013567ffffffffffffffff81111561231457600080fd5b61232085828601611e62565b925050602061233185828601611df9565b9150509250929050565b6000806040838503121561234e57600080fd5b600083013567ffffffffffffffff81111561236857600080fd5b61237485828601611e62565b925050602083013567ffffffffffffffff81111561239157600080fd5b61239d85828601611e62565b9150509250929050565b600080604083850312156123ba57600080fd5b600083013567ffffffffffffffff8111156123d457600080fd5b6123e085828601611e62565b92505060206123f185828601611eb6565b9150509250929050565b6000806000806080858703121561241157600080fd5b600085013567ffffffffffffffff81111561242b57600080fd5b61243787828801611e62565b945050602061244887828801611eb6565b935050604061245987828801611eb6565b925050606061246a87828801611eb6565b91505092959194509250565b600061248283836125a5565b905092915050565b61249381612ce6565b82525050565b6124a281612ce6565b82525050565b60006124b382612c7a565b6124bd8185612ca8565b9350836020820285016124cf85612c55565b8060005b8581101561250b57848403895281516124ec8582612476565b94506124f783612c9b565b925060208a019950506001810190506124d3565b50829750879550505050505092915050565b61252681612cf8565b82525050565b61253581612cf8565b82525050565b600061254682612c90565b6125508185612cca565b9350612560818560208601612d3d565b61256981612d70565b840191505092915050565b600061257f82612c90565b6125898185612cdb565b9350612599818560208601612d3d565b80840191505092915050565b60006125b082612c85565b6125ba8185612cb9565b93506125ca818560208601612d3d565b6125d381612d70565b840191505092915050565b60006125e982612c85565b6125f38185612cca565b9350612603818560208601612d3d565b61260c81612d70565b840191505092915050565b60008154600181166000811461263457600181146126595761269d565b607f60028304166126458187612cdb565b955060ff198316865280860193505061269d565b600282046126678187612cdb565b955061267285612c65565b60005b8281101561269457815481890152600182019150602081019050612675565b82880195505050505b505092915050565b60006126b2602283612cca565b91507f796f752063616e6e6e6f74206c696b6520796f7572206f776e20636f6e74656e60008301527f74730000000000000000000000000000000000000000000000000000000000006020830152604082019050919050565b60006101a083016000830151848203600086015261272982826124a8565b915050602083015161273e602086018261248a565b506040830151848203604086015261275682826125a5565b9150506060830151848203606086015261277082826125a5565b915050608083015161278560808601826128f7565b5060a083015161279860a08601826128f7565b5060c08301516127ab60c08601826128f7565b5060e08301516127be60e08601826128f7565b506101008301516127d36101008601826128f7565b506101208301516127e86101208601826128f7565b506101408301516127fd6101408601826128f7565b506101608301516128126101608601826128f7565b5061018083015161282761018086018261251d565b508091505092915050565b600061012083016000830151848203600086015261285082826125a5565b9150506020830151612865602086018261248a565b50604083015161287860408601826128f7565b50606083015161288b60608601826128f7565b50608083015161289e60808601826128f7565b5060a08301516128b160a08601826128f7565b5060c08301516128c460c08601826128f7565b5060e08301516128d760e08601826128f7565b506101008301516128ec61010086018261251d565b508091505092915050565b61290081612d24565b82525050565b61290f81612d24565b82525050565b60006129218284612574565b915081905092915050565b60006129388284612617565b915081905092915050565b600061018082019050612959600083018f612499565b818103602083015261296b818e6125de565b9050818103604083015261297f818d6125de565b905061298e606083018c612906565b61299b608083018b612906565b6129a860a083018a612906565b6129b560c0830189612906565b6129c260e0830188612906565b6129d0610100830187612906565b6129de610120830186612906565b6129ec610140830185612906565b6129fa61016083018461252c565b9d9c50505050505050505050505050565b6000602082019050612a20600083018461252c565b92915050565b60006020820190508181036000830152612a40818461253b565b905092915050565b60006060820190508181036000830152612a62818661253b565b90508181036020830152612a76818561253b565b9050612a856040830184612906565b949350505050565b6000610120820190508181036000830152612aa8818c6125de565b9050612ab7602083018b612499565b612ac4604083018a612906565b612ad16060830189612906565b612ade6080830188612906565b612aeb60a0830187612906565b612af860c0830186612906565b612b0560e0830185612906565b612b1361010083018461252c565b9a9950505050505050505050565b60006040820190508181036000830152612b3b81856125de565b9050612b4a6020830184612906565b9392505050565b60006020820190508181036000830152612b6a816126a5565b9050919050565b60006020820190508181036000830152612b8b818461270b565b905092915050565b60006020820190508181036000830152612bad8184612832565b905092915050565b6000602082019050612bca6000830184612906565b92915050565b6000604051905081810181811067ffffffffffffffff82111715612bf357600080fd5b8060405250919050565b600067ffffffffffffffff821115612c1457600080fd5b601f19601f8301169050602081019050919050565b600067ffffffffffffffff821115612c4057600080fd5b601f19601f8301169050602081019050919050565b6000819050602082019050919050565b60008190508160005260206000209050919050565b600081519050919050565b600081519050919050565b600081519050919050565b6000602082019050919050565b600082825260208201905092915050565b600082825260208201905092915050565b600082825260208201905092915050565b600081905092915050565b6000612cf182612d04565b9050919050565b60008115159050919050565b600073ffffffffffffffffffffffffffffffffffffffff82169050919050565b6000819050919050565b82818337600083830152505050565b60005b83811015612d5b578082015181840152602081019050612d40565b83811115612d6a576000848401525b50505050565b6000601f19601f8301169050919050565b612d8a81612ce6565b8114612d9557600080fd5b50565b612da181612d24565b8114612dac57600080fd5b5056fea365627a7a7231582035dcc6a7ba9fc256226a239e78c7f2aa772cb8f4f454daf1e8b7856f903507d26c6578706572696d656e74616cf564736f6c634300050c0040",
  "source": "pragma solidity ^0.5.12;\npragma experimental ABIEncoderV2;\n\n\ncontract ContentStorage {\n\n    struct ComplexContent\n    {\n        string[] version;         //   \n        address  uploader;          //  \n        string contentType;       //  \n        string fileLink;          //  \n        uint ccidState;   //      //  - active(0), not active(1), remove(2)\n        uint ccidPrice;  //       //  \n        uint256 time;            //   \n        uint updateTime;\n        uint income;             // ccid income\n        uint totalIncome;       // total income including all versions\n        uint totalLikes;        // totalLikes of the content\n        uint countBuyers;           // count number of sold content\n        bool isDelete;\n        // max is 14 parameters\n\n    }\n\n    // content contract's variable\n    mapping (string => ComplexContent) public complexContents;\n\n\n\n\n     // content version struct\n    struct Version\n    {\n        string refCc;               //   \n        address  uploader;            //  \n        uint versionState;        //  - active(0), not active(1), remove(2)\n        uint versionPrice;        //  \n        uint likes;                 // version likes\n        uint256 time;                //   \n        uint256 updateTime;\n        uint income;             // version income\n        bool isDelete;\n    }\n     // indexing to\n    mapping (string => Version) public versions;\n\n\n    // user likes struct\n    struct Likes {\n\n        string version;     /// content id\n        uint256 time;      // liked time\n    }\n\n        // user likes\n    mapping(address => Likes[]) public userLikes;\n\n    mapping(address => mapping(string => bool)) public userLikeId;\n\n    mapping (address => uint256) public tokens;\n\n\n\n\n//   event ContentRegist(address indexed user, string ccid, string version, string contentType, uint ccidPrice, uint versionPrice, uint time);\n\n//   event ContentUpdate(address indexed user, string ccid, string version, uint versionPrice, uint time);\n\n  // event ModifyContent(string ccid, uint state, uint price, uint time);\n   // event for adding likes\n   event LikeAdded(address indexed user, string version, string ccid, uint time);\n\n\n\n   // modifier for checking user liked content\n  modifier checkUserLike(string memory _version, address sender)\n   {\n       require(userLikeId[sender][_version] == false);\n       _;\n   }\n\n\n\n\n\n  /// registr new content\n\n  function ContentRegist(\n      address  sender, string memory _ccid, string memory _version, string memory _contentType,\n      string memory _fileLink, uint _ccidState, uint _ccidPrice, uint256 _time,\n      string memory _refCc, uint _versionState, uint _versionPrice)\n  public returns (bool)\n  {\n\n      // add content\n      ComplexContent storage content = complexContents[_ccid];\n      content.version.push(_version);  // push version to ccid\n      content.uploader = sender;   // save msg.sender as a uploader\n      content.contentType = _contentType;  // save contentType from ginven content type\n      content.fileLink = _fileLink;\n      content.ccidPrice = _ccidPrice;\n      content.ccidState = _ccidState;\n      content.time = _time;\n      content.updateTime = _time;\n   //   complexContents[_ccid].isDelete = false;       // set inital bool to false\n      content.totalLikes = 0;        // set inital likes to zero\n\n\n      Version storage v = versions[_version];\n      //add version of the content\n      v.refCc = _refCc;\n      v.uploader = sender;\n      v.versionState = _versionState;      // set same state with ccid state\n      v.versionPrice = _versionPrice;     // set same price with ccid price\n      v.likes = 0;      // set inital likes to zero\n      v.time = _time;\n      v.updateTime = _time;\n   //   versions[_version].isDelete = false;\n\n    //  emit ContentRegist(sender, _ccid, _version, _contentType, _ccidPrice, _versionPrice, _time);\n\n\n      return true;\n\n  }\n\n\n  // get content\n  function getComplexContent(string memory _ccid)\n  public view\n  returns(ComplexContent memory)\n  {\n      return complexContents[_ccid];\n  }\n\n\n\n  // get version of the content\n  function getComplexContentVersion(string memory _version)\n  public view\n  //returns(string memory _referenceId, address uploaderAdr, uint state, uint price, uint likes, uint uploadTime)\n  returns(Version memory)\n  {\n      return versions[_version];\n  }\n\n  // get version id by postion\n  function  seeVersionPos(string memory _ccid, uint pos)\n  public view  returns(string memory version)\n  {\n      return complexContents[_ccid].version[pos];\n\n  }\n\n\n//   function getVersion(string memory ccid, uint pos)\n//   public view returns(Version memory)\n//   {\n//       string memory id = seeVersionPos(ccid, pos);\n//       return versions[id];\n\n//   }\n\n\n\n\n  function contentUpdate(\n      address  sender, string memory _ccid, string memory _version, string memory _referenceId, uint state, uint price, uint modifyTime)\n\n      public returns(bool)\n  {\n\n      // add new version to content\n      ComplexContent storage content = complexContents[_ccid];\n      content.version.push(_version); // push new version to version version array\n      content.updateTime = modifyTime;\n\n      // save new version parameters\n      Version storage v = versions[_version];\n      v.refCc = _referenceId;\n      v.uploader = sender;\n      v.versionState = state;\n      v.versionPrice = price;\n      v.likes = 0;  // set inital likes to zero\n      v.time = modifyTime;\n\n      //emit ContentUpdate(sender, _ccid, _version, price, modifyTime);\n      return true;\n  }\n\n\n function modifyContent(string memory _ccid, uint _ccidState, uint _ccidPrice, uint _time)\n  public returns(bool)\n  {\n    ComplexContent storage content = complexContents[_ccid];\n     content.ccidState = _ccidState;\n     content.ccidPrice = _ccidPrice;\n     content.updateTime = _time;\n\n     //emit ModifyContent(_ccid, _ccidState, _ccidPrice, _time);\n      return true;\n  }\n\n  function modifyVersionContent(string memory _version, uint _versionState, uint _versionPrice, uint _time)\n  public returns(bool)\n  {\n      Version storage v = versions[_version];\n      v.versionState = _versionState;\n      v.versionPrice = _versionPrice;\n      v.updateTime = _time;\n      return true;\n  }\n\n\n\n\n  // remove ccid content\n  function removeContent(string memory _ccid, uint _time)\n  public\n  returns (bool)\n\n  {\n     ComplexContent storage content = complexContents[_ccid];\n     content.isDelete = true;\n     content.ccidState = 2;\n     content.updateTime = _time;\n\n    return true;\n  }\n  // remove version of the content\n  function removeVersion(string memory _version, uint _time)\n  public\n\n  returns (bool)\n  {\n      Version storage v = versions[_version];\n     //  set isDelete parameter to true;\n      v.isDelete = true;\n      v.versionState = 2;\n      v.updateTime = _time;\n\n      return true;\n  }\n\n\n\n\n  // add likes\n  function AddLike(address sender, string memory _version, string memory _ccid, uint _time)\n  public\n  checkUserLike(_version, sender)\n  {\n    if(sender == versions[_version].uploader) revert(\"you cannnot like your own contents\");\n    require(checkVersionExists(_version));\n    require(checkContentExists(_ccid));\n    userLikes[sender].push(Likes({\n        version:_version,\n        time : _time\n    }));\n     userLikeId[sender][_version] = true;\n     versions[_version].likes += 1;\n     complexContents[_ccid].totalLikes+=1;\n     emit LikeAdded(sender, _version, _ccid, _time);\n\n  }\n\n\n  // get  likes\n  function getLikes(string memory _version)\n  public view\n  returns(uint likes)\n  {\n      require(checkVersionExists(_version));\n      // return total likes of the version\n      return(versions[_version].likes);\n  }\n\n\n\n  // get total likes for content\n  function getTotalLikes(string memory _ccid)\n  public view\n  returns(uint totalLikes)\n  {\n      require(checkContentExists(_ccid));\n      return(complexContents[_ccid].totalLikes);\n  }\n\n\n\n\n\n\n  // check if content exists\n  function checkContentExists(string memory id) public view returns (bool)\n  {\n      bytes memory fileLink = bytes(complexContents[id].fileLink);  // convert string to bytes and check for existance\n      return fileLink.length != 0;\n  }\n\n\n\n   // check if version exist\n  function checkVersionExists(string memory id) public view returns(bool)\n  {\n    bytes memory refCcid = bytes(versions[id].refCc);         // convert string to bytes and check for existance\n      return refCcid.length !=0;\n  }\n\n\n  // check version has inside ccid\n  function checkContentVersions(string memory _ccid, string memory _version) public view returns(bool)\n  {\n      // get length of all uploaded versions\n      uint version = complexContents[_ccid].version.length;\n        //loop through all uploaded versions for specific ccid\n      for(uint i = 0; i< version; i++)\n      {\n          // convert string to hash and compare two hashes\n          if(keccak256(abi.encodePacked(complexContents[_ccid].version[i])) == keccak256(abi.encodePacked(_version)))\n             return true;\n      }\n      return false;\n  }\n\n\n  function onlySeller(string memory contentId, address sender) public view returns(bool)\n  {\n    return sender == complexContents[contentId].uploader || sender == versions[contentId].uploader;\n  }\n\n   function onlyBuyer(string memory contentId, address sender) public view returns(bool)\n   {\n     return sender != complexContents[contentId].uploader && sender != versions[contentId].uploader;\n   }\n\n    function checkPrice(string memory contentId, uint price) public view returns(bool)\n    {\n      return price == complexContents[contentId].ccidPrice || price == versions[contentId].versionPrice;\n    }\n}\n",
  "sourcePath": "/Users/aziz/Desktop/chainlink-hack-api/truffle/contracts/ContentStorage.sol",
  "compiler": {
    "name": "solc",
    "version": "0.5.12+commit.7709ece9.Emscripten.clang"
  },
  "schemaVersion": "3.0.19",
  "updatedAt": "2020-01-02T04:43:58.005Z",
  "networkType": "ethereum",
  "devdoc": {
    "methods": {}
  },
  "userdoc": {
    "methods": {
      "ContentRegist(address,string,string,string,string,uint256,uint256,uint256,string,uint256,uint256)": {
        "notice": "registr new content"
      }
    }
  }
}