{
  "contractName": "UserContract",
  "abi": [
    {
      "anonymous": false,
      "inputs": [
        {
          "indexed": true,
          "internalType": "address",
          "name": "user",
          "type": "address"
        },
        {
          "indexed": false,
          "internalType": "uint256",
          "name": "time",
          "type": "uint256"
        }
      ],
      "name": "ContentDeleted",
      "type": "event"
    },
    {
      "anonymous": false,
      "inputs": [
        {
          "indexed": true,
          "internalType": "address",
          "name": "user",
          "type": "address"
        },
        {
          "indexed": false,
          "internalType": "string",
          "name": "ccid",
          "type": "string"
        },
        {
          "indexed": false,
          "internalType": "uint256",
          "name": "time",
          "type": "uint256"
        }
      ],
      "name": "ContentModified",
      "type": "event"
    },
    {
      "anonymous": false,
      "inputs": [
        {
          "indexed": true,
          "internalType": "address",
          "name": "user",
          "type": "address"
        },
        {
          "indexed": false,
          "internalType": "string",
          "name": "ccid",
          "type": "string"
        },
        {
          "indexed": false,
          "internalType": "string",
          "name": "version",
          "type": "string"
        },
        {
          "indexed": false,
          "internalType": "uint256",
          "name": "ccidPrice",
          "type": "uint256"
        },
        {
          "indexed": false,
          "internalType": "uint256",
          "name": "time",
          "type": "uint256"
        }
      ],
      "name": "ContentRegistrated",
      "type": "event"
    },
    {
      "anonymous": false,
      "inputs": [
        {
          "indexed": true,
          "internalType": "address",
          "name": "user",
          "type": "address"
        },
        {
          "indexed": false,
          "internalType": "string",
          "name": "ccid",
          "type": "string"
        },
        {
          "indexed": false,
          "internalType": "string",
          "name": "version",
          "type": "string"
        },
        {
          "indexed": false,
          "internalType": "uint256",
          "name": "price",
          "type": "uint256"
        },
        {
          "indexed": false,
          "internalType": "uint256",
          "name": "time",
          "type": "uint256"
        }
      ],
      "name": "ContentUpdated",
      "type": "event"
    },
    {
      "anonymous": false,
      "inputs": [
        {
          "indexed": true,
          "internalType": "address",
          "name": "user",
          "type": "address"
        },
        {
          "indexed": false,
          "internalType": "string",
          "name": "version",
          "type": "string"
        },
        {
          "indexed": false,
          "internalType": "uint256",
          "name": "time",
          "type": "uint256"
        }
      ],
      "name": "VersionContentDeleted",
      "type": "event"
    },
    {
      "anonymous": false,
      "inputs": [
        {
          "indexed": true,
          "internalType": "address",
          "name": "user",
          "type": "address"
        },
        {
          "indexed": false,
          "internalType": "string",
          "name": "version",
          "type": "string"
        },
        {
          "indexed": false,
          "internalType": "uint256",
          "name": "time",
          "type": "uint256"
        }
      ],
      "name": "VersionModified",
      "type": "event"
    },
    {
      "constant": true,
      "inputs": [
        {
          "internalType": "address",
          "name": "",
          "type": "address"
        },
        {
          "internalType": "string",
          "name": "",
          "type": "string"
        }
      ],
      "name": "purchasedContent",
      "outputs": [
        {
          "internalType": "bool",
          "name": "",
          "type": "bool"
        }
      ],
      "payable": false,
      "stateMutability": "view",
      "type": "function"
    },
    {
      "constant": true,
      "inputs": [
        {
          "internalType": "address",
          "name": "",
          "type": "address"
        },
        {
          "internalType": "uint256",
          "name": "",
          "type": "uint256"
        }
      ],
      "name": "uploadList",
      "outputs": [
        {
          "internalType": "string",
          "name": "",
          "type": "string"
        }
      ],
      "payable": false,
      "stateMutability": "view",
      "type": "function"
    },
    {
      "constant": true,
      "inputs": [
        {
          "internalType": "address",
          "name": "",
          "type": "address"
        },
        {
          "internalType": "uint256",
          "name": "",
          "type": "uint256"
        }
      ],
      "name": "userPurchases",
      "outputs": [
        {
          "internalType": "string",
          "name": "id",
          "type": "string"
        },
        {
          "internalType": "uint256",
          "name": "time",
          "type": "uint256"
        }
      ],
      "payable": false,
      "stateMutability": "view",
      "type": "function"
    },
    {
      "constant": false,
      "inputs": [
        {
          "internalType": "address",
          "name": "sender",
          "type": "address"
        },
        {
          "internalType": "string",
          "name": "_ccid",
          "type": "string"
        },
        {
          "internalType": "string",
          "name": "_version",
          "type": "string"
        },
        {
          "internalType": "string",
          "name": "_contentType",
          "type": "string"
        },
        {
          "internalType": "string",
          "name": "_fileLink",
          "type": "string"
        },
        {
          "internalType": "uint256",
          "name": "_ccidState",
          "type": "uint256"
        },
        {
          "internalType": "uint256",
          "name": "_ccidPrice",
          "type": "uint256"
        },
        {
          "internalType": "uint256",
          "name": "time",
          "type": "uint256"
        },
        {
          "internalType": "string",
          "name": "_refCc",
          "type": "string"
        },
        {
          "internalType": "uint256",
          "name": "versionState",
          "type": "uint256"
        },
        {
          "internalType": "uint256",
          "name": "versionPrice",
          "type": "uint256"
        }
      ],
      "name": "UploadContent",
      "outputs": [
        {
          "internalType": "bool",
          "name": "",
          "type": "bool"
        }
      ],
      "payable": false,
      "stateMutability": "nonpayable",
      "type": "function"
    },
    {
      "constant": false,
      "inputs": [
        {
          "internalType": "address",
          "name": "sender",
          "type": "address"
        },
        {
          "internalType": "string",
          "name": "_ccid",
          "type": "string"
        },
        {
          "internalType": "string",
          "name": "_version",
          "type": "string"
        },
        {
          "internalType": "string",
          "name": "_referenceId",
          "type": "string"
        },
        {
          "internalType": "uint256",
          "name": "state",
          "type": "uint256"
        },
        {
          "internalType": "uint256",
          "name": "price",
          "type": "uint256"
        },
        {
          "internalType": "uint256",
          "name": "time",
          "type": "uint256"
        }
      ],
      "name": "updateContent",
      "outputs": [
        {
          "internalType": "bool",
          "name": "",
          "type": "bool"
        }
      ],
      "payable": false,
      "stateMutability": "nonpayable",
      "type": "function"
    },
    {
      "constant": false,
      "inputs": [
        {
          "internalType": "address",
          "name": "sender",
          "type": "address"
        },
        {
          "internalType": "string",
          "name": "_ccid",
          "type": "string"
        },
        {
          "internalType": "uint256",
          "name": "state",
          "type": "uint256"
        },
        {
          "internalType": "uint256",
          "name": "price",
          "type": "uint256"
        },
        {
          "internalType": "uint256",
          "name": "time",
          "type": "uint256"
        }
      ],
      "name": "modifyContent",
      "outputs": [
        {
          "internalType": "bool",
          "name": "",
          "type": "bool"
        }
      ],
      "payable": false,
      "stateMutability": "nonpayable",
      "type": "function"
    },
    {
      "constant": false,
      "inputs": [
        {
          "internalType": "address",
          "name": "sender",
          "type": "address"
        },
        {
          "internalType": "string",
          "name": "_ccid",
          "type": "string"
        },
        {
          "internalType": "string",
          "name": "_version",
          "type": "string"
        },
        {
          "internalType": "uint256",
          "name": "state",
          "type": "uint256"
        },
        {
          "internalType": "uint256",
          "name": "price",
          "type": "uint256"
        },
        {
          "internalType": "uint256",
          "name": "time",
          "type": "uint256"
        }
      ],
      "name": "modifyVersion",
      "outputs": [
        {
          "internalType": "bool",
          "name": "",
          "type": "bool"
        }
      ],
      "payable": false,
      "stateMutability": "nonpayable",
      "type": "function"
    },
    {
      "constant": false,
      "inputs": [
        {
          "internalType": "address",
          "name": "sender",
          "type": "address"
        },
        {
          "internalType": "string",
          "name": "_ccid",
          "type": "string"
        },
        {
          "internalType": "uint256",
          "name": "_time",
          "type": "uint256"
        }
      ],
      "name": "removeContent",
      "outputs": [
        {
          "internalType": "bool",
          "name": "",
          "type": "bool"
        }
      ],
      "payable": false,
      "stateMutability": "nonpayable",
      "type": "function"
    },
    {
      "constant": false,
      "inputs": [
        {
          "internalType": "address",
          "name": "sender",
          "type": "address"
        },
        {
          "internalType": "string",
          "name": "_ccid",
          "type": "string"
        },
        {
          "internalType": "string",
          "name": "_version",
          "type": "string"
        },
        {
          "internalType": "uint256",
          "name": "time",
          "type": "uint256"
        }
      ],
      "name": "removeVersion",
      "outputs": [
        {
          "internalType": "bool",
          "name": "",
          "type": "bool"
        }
      ],
      "payable": false,
      "stateMutability": "nonpayable",
      "type": "function"
    }
  ],
  "bytecode": "0x608060405234801561001057600080fd5b50611f57806100206000396000f3fe608060405234801561001057600080fd5b50600436106100935760003560e01c8063cc0ab70e11610066578063cc0ab70e14610158578063cf2c033414610188578063f45efc50146101b9578063f8eda6af146101e9578063fcc0aba01461021957610093565b8063040ec228146100985780634268270c146100c857806356f554a3146100f85780635964bd4d14610128575b600080fd5b6100b260048036036100ad9190810190611462565b610249565b6040516100bf9190611b88565b60405180910390f35b6100e260048036036100dd91908101906116b0565b610561565b6040516100ef9190611b88565b60405180910390f35b610112600480360361010d9190810190611743565b610811565b60405161011f9190611b88565b60405180910390f35b610142600480360361013d919081019061140e565b610a8b565b60405161014f9190611b88565b60405180910390f35b610172600480360361016d91908101906117fc565b610ad0565b60405161017f9190611b88565b60405180910390f35b6101a2600480360361019d91908101906118f2565b610c8d565b6040516101b0929190611d1d565b60405180910390f35b6101d360048036036101ce91908101906118f2565b610d63565b6040516101e09190611ba3565b60405180910390f35b61020360048036036101fe91908101906115ca565b610e29565b6040516102109190611b88565b60405180910390f35b610233600480360361022e9190810190611863565b6110b9565b6040516102409190611b88565b60405180910390f35b6000801515600360009054906101000a900473ffffffffffffffffffffffffffffffffffffffff1673ffffffffffffffffffffffffffffffffffffffff1663ab30fa268d6040518263ffffffff1660e01b81526004016102a99190611bc5565b60206040518083038186803b1580156102c157600080fd5b505afa1580156102d5573d6000803e3d6000fd5b505050506040513d601f19601f820116820180604052506102f9919081019061192e565b15151461030557600080fd5b60001515600360009054906101000a900473ffffffffffffffffffffffffffffffffffffffff1673ffffffffffffffffffffffffffffffffffffffff1663d94b947d8c6040518263ffffffff1660e01b81526004016103649190611bc5565b60206040518083038186803b15801561037c57600080fd5b505afa158015610390573d6000803e3d6000fd5b505050506040513d601f19601f820116820180604052506103b4919081019061192e565b1515146103c057600080fd5b600360009054906101000a900473ffffffffffffffffffffffffffffffffffffffff1673ffffffffffffffffffffffffffffffffffffffff1663767392038d8d8d8d8d8d8d8d8d8d8d6040518c63ffffffff1660e01b815260040161042f9b9a99989796959493929190611a36565b602060405180830381600087803b15801561044957600080fd5b505af115801561045d573d6000803e3d6000fd5b505050506040513d601f19601f82011682018060405250610481919081019061192e565b50600260008d73ffffffffffffffffffffffffffffffffffffffff1673ffffffffffffffffffffffffffffffffffffffff1681526020019081526020016000208b90806001815401808255809150509060018203906000526020600020016000909192909190915090805190602001906104fc929190611282565b50508b73ffffffffffffffffffffffffffffffffffffffff167f9935a2aa4a9f3fd79510c235a8a5b5d162089d7c0eac7f7000cf4e9acd98beb88c8c898960405161054a9493929190611c4e565b60405180910390a29b9a5050505050505050505050565b6000600360009054906101000a900473ffffffffffffffffffffffffffffffffffffffff1673ffffffffffffffffffffffffffffffffffffffff166365f827e084876040518363ffffffff1660e01b81526004016105c0929190611be7565b60206040518083038186803b1580156105d857600080fd5b505afa1580156105ec573d6000803e3d6000fd5b505050506040513d601f19601f82011682018060405250610610919081019061192e565b61061957600080fd5b600360009054906101000a900473ffffffffffffffffffffffffffffffffffffffff1673ffffffffffffffffffffffffffffffffffffffff1663e976af3e85856040518363ffffffff1660e01b8152600401610676929190611c17565b60206040518083038186803b15801561068e57600080fd5b505afa1580156106a2573d6000803e3d6000fd5b505050506040513d601f19601f820116820180604052506106c6919081019061192e565b610705576040517f08c379a00000000000000000000000000000000000000000000000000000000081526004016106fc90611d4d565b60405180910390fd5b600360009054906101000a900473ffffffffffffffffffffffffffffffffffffffff1673ffffffffffffffffffffffffffffffffffffffff16637cfe400e84846040518363ffffffff1660e01b8152600401610762929190611ca1565b602060405180830381600087803b15801561077c57600080fd5b505af1158015610790573d6000803e3d6000fd5b505050506040513d601f19601f820116820180604052506107b4919081019061192e565b508473ffffffffffffffffffffffffffffffffffffffff167f381757adab84fece866d5e0f56347c43e9b8a76d2c3639e5983258928bff562484846040516107fd929190611ca1565b60405180910390a260019050949350505050565b6000600360009054906101000a900473ffffffffffffffffffffffffffffffffffffffff1673ffffffffffffffffffffffffffffffffffffffff166365f827e087896040518363ffffffff1660e01b8152600401610870929190611be7565b60206040518083038186803b15801561088857600080fd5b505afa15801561089c573d6000803e3d6000fd5b505050506040513d601f19601f820116820180604052506108c0919081019061192e565b6108c957600080fd5b600360009054906101000a900473ffffffffffffffffffffffffffffffffffffffff1673ffffffffffffffffffffffffffffffffffffffff1663d94b947d866040518263ffffffff1660e01b81526004016109249190611bc5565b60206040518083038186803b15801561093c57600080fd5b505afa158015610950573d6000803e3d6000fd5b505050506040513d601f19601f82011682018060405250610974919081019061192e565b61097d57600080fd5b600360009054906101000a900473ffffffffffffffffffffffffffffffffffffffff1673ffffffffffffffffffffffffffffffffffffffff1663de8ff9aa868686866040518563ffffffff1660e01b81526004016109de9493929190611cd1565b602060405180830381600087803b1580156109f857600080fd5b505af1158015610a0c573d6000803e3d6000fd5b505050506040513d601f19601f82011682018060405250610a30919081019061192e565b508673ffffffffffffffffffffffffffffffffffffffff167f31de138c609e8bd9b16b327c2eb8cf303038e1a65e0b1651cbf6b8960d063b188684604051610a79929190611ca1565b60405180910390a29695505050505050565b6001602052816000526040600020818051602081018201805184825260208301602085012081835280955050505050506000915091509054906101000a900460ff1681565b6000600360009054906101000a900473ffffffffffffffffffffffffffffffffffffffff1673ffffffffffffffffffffffffffffffffffffffff166365f827e084866040518363ffffffff1660e01b8152600401610b2f929190611be7565b60206040518083038186803b158015610b4757600080fd5b505afa158015610b5b573d6000803e3d6000fd5b505050506040513d601f19601f82011682018060405250610b7f919081019061192e565b610b8857600080fd5b600360009054906101000a900473ffffffffffffffffffffffffffffffffffffffff1673ffffffffffffffffffffffffffffffffffffffff1663754ccf1c84846040518363ffffffff1660e01b8152600401610be5929190611ca1565b602060405180830381600087803b158015610bff57600080fd5b505af1158015610c13573d6000803e3d6000fd5b505050506040513d601f19601f82011682018060405250610c37919081019061192e565b508373ffffffffffffffffffffffffffffffffffffffff167f16a595a60488b92c2f54dda2a71e539f3fec4bc6152a849ea05fa66b13262e0b83604051610c7e9190611d6d565b60405180910390a29392505050565b60006020528160005260406000208181548110610ca657fe5b906000526020600020906002020160009150915050806000018054600181600116156101000203166002900480601f016020809104026020016040519081016040528092919081815260200182805460018160011615610100020316600290048015610d535780601f10610d2857610100808354040283529160200191610d53565b820191906000526020600020905b815481529060010190602001808311610d3657829003601f168201915b5050505050908060010154905082565b60026020528160005260406000208181548110610d7c57fe5b90600052602060002001600091509150508054600181600116156101000203166002900480601f016020809104026020016040519081016040528092919081815260200182805460018160011615610100020316600290048015610e215780601f10610df657610100808354040283529160200191610e21565b820191906000526020600020905b815481529060010190602001808311610e0457829003601f168201915b505050505081565b6000600360009054906101000a900473ffffffffffffffffffffffffffffffffffffffff1673ffffffffffffffffffffffffffffffffffffffff166365f827e0888a6040518363ffffffff1660e01b8152600401610e88929190611be7565b60206040518083038186803b158015610ea057600080fd5b505afa158015610eb4573d6000803e3d6000fd5b505050506040513d601f19601f82011682018060405250610ed8919081019061192e565b610ee157600080fd5b60001515600360009054906101000a900473ffffffffffffffffffffffffffffffffffffffff1673ffffffffffffffffffffffffffffffffffffffff1663d94b947d886040518263ffffffff1660e01b8152600401610f409190611bc5565b60206040518083038186803b158015610f5857600080fd5b505afa158015610f6c573d6000803e3d6000fd5b505050506040513d601f19601f82011682018060405250610f90919081019061192e565b151514610f9c57600080fd5b600360009054906101000a900473ffffffffffffffffffffffffffffffffffffffff1673ffffffffffffffffffffffffffffffffffffffff166363cf768b898989898989896040518863ffffffff1660e01b81526004016110039796959493929190611b04565b602060405180830381600087803b15801561101d57600080fd5b505af1158015611031573d6000803e3d6000fd5b505050506040513d601f19601f82011682018060405250611055919081019061192e565b508773ffffffffffffffffffffffffffffffffffffffff167ff964912db98fef2d64da9d87b5ca648630f6a8e4604b462f08e310a7a949993c888886866040516110a29493929190611c4e565b60405180910390a260019050979650505050505050565b6000600360009054906101000a900473ffffffffffffffffffffffffffffffffffffffff1673ffffffffffffffffffffffffffffffffffffffff166365f827e086886040518363ffffffff1660e01b8152600401611118929190611be7565b60206040518083038186803b15801561113057600080fd5b505afa158015611144573d6000803e3d6000fd5b505050506040513d601f19601f82011682018060405250611168919081019061192e565b61117157600080fd5b600360009054906101000a900473ffffffffffffffffffffffffffffffffffffffff1673ffffffffffffffffffffffffffffffffffffffff1663d59e91ad868686866040518563ffffffff1660e01b81526004016111d29493929190611cd1565b602060405180830381600087803b1580156111ec57600080fd5b505af1158015611200573d6000803e3d6000fd5b505050506040513d601f19601f82011682018060405250611224919081019061192e565b508573ffffffffffffffffffffffffffffffffffffffff167f3de6c7d989cd906065cba0d41524545a2c54f5f3d3ac04798b42fa45e9f6ce7c868460405161126d929190611ca1565b60405180910390a26001905095945050505050565b828054600181600116156101000203166002900490600052602060002090601f016020900481019282601f106112c357805160ff19168380011785556112f1565b828001600101855582156112f1579182015b828111156112f05782518255916020019190600101906112d5565b5b5090506112fe9190611302565b5090565b61132491905b80821115611320576000816000905550600101611308565b5090565b90565b60008135905061133681611ecf565b92915050565b60008151905061134b81611ee6565b92915050565b600082601f83011261136257600080fd5b813561137561137082611db5565b611d88565b9150808252602083016020830185838301111561139157600080fd5b61139c838284611e7c565b50505092915050565b600082601f8301126113b657600080fd5b81356113c96113c482611de1565b611d88565b915080825260208301602083018583830111156113e557600080fd5b6113f0838284611e7c565b50505092915050565b60008135905061140881611efd565b92915050565b6000806040838503121561142157600080fd5b600061142f85828601611327565b925050602083013567ffffffffffffffff81111561144c57600080fd5b61145885828601611351565b9150509250929050565b60008060008060008060008060008060006101608c8e03121561148457600080fd5b60006114928e828f01611327565b9b505060208c013567ffffffffffffffff8111156114af57600080fd5b6114bb8e828f016113a5565b9a505060408c013567ffffffffffffffff8111156114d857600080fd5b6114e48e828f016113a5565b99505060608c013567ffffffffffffffff81111561150157600080fd5b61150d8e828f016113a5565b98505060808c013567ffffffffffffffff81111561152a57600080fd5b6115368e828f016113a5565b97505060a06115478e828f016113f9565b96505060c06115588e828f016113f9565b95505060e06115698e828f016113f9565b9450506101008c013567ffffffffffffffff81111561158757600080fd5b6115938e828f016113a5565b9350506101206115a58e828f016113f9565b9250506101406115b78e828f016113f9565b9150509295989b509295989b9093969950565b600080600080600080600060e0888a0312156115e557600080fd5b60006115f38a828b01611327565b975050602088013567ffffffffffffffff81111561161057600080fd5b61161c8a828b016113a5565b965050604088013567ffffffffffffffff81111561163957600080fd5b6116458a828b016113a5565b955050606088013567ffffffffffffffff81111561166257600080fd5b61166e8a828b016113a5565b945050608061167f8a828b016113f9565b93505060a06116908a828b016113f9565b92505060c06116a18a828b016113f9565b91505092959891949750929550565b600080600080608085870312156116c657600080fd5b60006116d487828801611327565b945050602085013567ffffffffffffffff8111156116f157600080fd5b6116fd878288016113a5565b935050604085013567ffffffffffffffff81111561171a57600080fd5b611726878288016113a5565b9250506060611737878288016113f9565b91505092959194509250565b60008060008060008060c0878903121561175c57600080fd5b600061176a89828a01611327565b965050602087013567ffffffffffffffff81111561178757600080fd5b61179389828a016113a5565b955050604087013567ffffffffffffffff8111156117b057600080fd5b6117bc89828a016113a5565b94505060606117cd89828a016113f9565b93505060806117de89828a016113f9565b92505060a06117ef89828a016113f9565b9150509295509295509295565b60008060006060848603121561181157600080fd5b600061181f86828701611327565b935050602084013567ffffffffffffffff81111561183c57600080fd5b611848868287016113a5565b9250506040611859868287016113f9565b9150509250925092565b600080600080600060a0868803121561187b57600080fd5b600061188988828901611327565b955050602086013567ffffffffffffffff8111156118a657600080fd5b6118b2888289016113a5565b94505060406118c3888289016113f9565b93505060606118d4888289016113f9565b92505060806118e5888289016113f9565b9150509295509295909350565b6000806040838503121561190557600080fd5b600061191385828601611327565b9250506020611924858286016113f9565b9150509250929050565b60006020828403121561194057600080fd5b600061194e8482850161133c565b91505092915050565b61196081611e34565b82525050565b61196f81611e46565b82525050565b600061198082611e18565b61198a8185611e23565b935061199a818560208601611e8b565b6119a381611ebe565b840191505092915050565b60006119b982611e0d565b6119c38185611e23565b93506119d3818560208601611e8b565b6119dc81611ebe565b840191505092915050565b60006119f4601583611e23565b91507f76657273696f6e2073686f756c642065786973747300000000000000000000006000830152602082019050919050565b611a3081611e72565b82525050565b600061016082019050611a4c600083018e611957565b8181036020830152611a5e818d611975565b90508181036040830152611a72818c611975565b90508181036060830152611a86818b611975565b90508181036080830152611a9a818a611975565b9050611aa960a0830189611a27565b611ab660c0830188611a27565b611ac360e0830187611a27565b818103610100830152611ad68186611975565b9050611ae6610120830185611a27565b611af4610140830184611a27565b9c9b505050505050505050505050565b600060e082019050611b19600083018a611957565b8181036020830152611b2b8189611975565b90508181036040830152611b3f8188611975565b90508181036060830152611b538187611975565b9050611b626080830186611a27565b611b6f60a0830185611a27565b611b7c60c0830184611a27565b98975050505050505050565b6000602082019050611b9d6000830184611966565b92915050565b60006020820190508181036000830152611bbd81846119ae565b905092915050565b60006020820190508181036000830152611bdf8184611975565b905092915050565b60006040820190508181036000830152611c018185611975565b9050611c106020830184611957565b9392505050565b60006040820190508181036000830152611c318185611975565b90508181036020830152611c458184611975565b90509392505050565b60006080820190508181036000830152611c688187611975565b90508181036020830152611c7c8186611975565b9050611c8b6040830185611a27565b611c986060830184611a27565b95945050505050565b60006040820190508181036000830152611cbb8185611975565b9050611cca6020830184611a27565b9392505050565b60006080820190508181036000830152611ceb8187611975565b9050611cfa6020830186611a27565b611d076040830185611a27565b611d146060830184611a27565b95945050505050565b60006040820190508181036000830152611d3781856119ae565b9050611d466020830184611a27565b9392505050565b60006020820190508181036000830152611d66816119e7565b9050919050565b6000602082019050611d826000830184611a27565b92915050565b6000604051905081810181811067ffffffffffffffff82111715611dab57600080fd5b8060405250919050565b600067ffffffffffffffff821115611dcc57600080fd5b601f19601f8301169050602081019050919050565b600067ffffffffffffffff821115611df857600080fd5b601f19601f8301169050602081019050919050565b600081519050919050565b600081519050919050565b600082825260208201905092915050565b6000611e3f82611e52565b9050919050565b60008115159050919050565b600073ffffffffffffffffffffffffffffffffffffffff82169050919050565b6000819050919050565b82818337600083830152505050565b60005b83811015611ea9578082015181840152602081019050611e8e565b83811115611eb8576000848401525b50505050565b6000601f19601f8301169050919050565b611ed881611e34565b8114611ee357600080fd5b50565b611eef81611e46565b8114611efa57600080fd5b50565b611f0681611e72565b8114611f1157600080fd5b5056fea365627a7a72315820a0984f780ac842036b024c9b9e889970e145dca1fc456012454d314c8b4f22d26c6578706572696d656e74616cf564736f6c634300050c0040",
  "source": "pragma solidity ^0.5.12;\npragma experimental ABIEncoderV2;\n\nimport \"./ContentStorage.sol\";\n\ncontract UserContract {\n\n // user purchase\n  struct Purchase {\n    string id;\n    uint time;\n  }\n\n  mapping(address => Purchase[]) public userPurchases;\n\n  mapping(address => mapping(string => bool)) public purchasedContent;\n\n  mapping(address => string[]) public uploadList;\n\n\n  // events\n event ContentRegistrated(address indexed user, string ccid, string version, uint ccidPrice, uint time);\n\n // event for  ContentUpdated\n event ContentUpdated(address indexed user, string ccid, string version, uint price, uint time);\n // event for content modified\n event ContentModified(address indexed user, string ccid, uint time);\n // event for version modified\n event VersionModified(address indexed user, string version, uint time);\n // event for content deleted\n event ContentDeleted(address indexed user, uint time);\n // event for version deleted\n event VersionContentDeleted(address indexed user,  string version, uint time);\n\n\n\n  ContentStorage contentStorage;\n\n\n/* // modifiers\n // modifier for checking seller address\n  modifier onlySeller(string memory contentId, address sender)\n  {\n    require(sender == contentStorage.complexContents[contentId].uploader || sender == contentStorage.versions[contentId].uploader);\n    _;\n  } */\n // modifier for cheking buyer\n  /* modifier onlyBuyer(address sender, string memory contentId)\n  {\n    require(sender != contentStorage.versions[contentId].uploader && sender != contentStorage.complexContents[contentId].uploader);\n    _;\n  } */\n // modifier for checking user purchase history\n  modifier checkUserPurchase(string memory id, address sender)\n  {\n     require(purchasedContent[sender][id] == false);\n     _;\n  }\n\n  // modifier for checking content price\n  /* modifier checkPrice(string memory contentId, uint price)\n  /* {\n    // change price to msg.value when payment made with token\n    require(price == contentStorage.versions[contentId].versionPrice || price == contentStorage.complexContents[contentId].ccidPrice == price);\n\n    _;\n  } */\n\n\n\n\n  /***************************\n     CONTENT REGISTRATION\n  ***************************/\n  function UploadContent(address sender, string memory _ccid, string memory _version, string memory _contentType, string memory _fileLink,\n    uint _ccidState,uint _ccidPrice, uint time, string memory _refCc, uint versionState, uint versionPrice)\n    public returns (bool)\n    {\n      require(contentStorage.checkContentExists(_ccid) == false);  // check for content existance\n      require(contentStorage.checkVersionExists(_version) == false); // check for version existance\n       // save content in contentStorage contract\n      contentStorage.ContentRegist(sender, _ccid, _version, _contentType, _fileLink, _ccidState, _ccidPrice, time,\n        _refCc, versionState, versionPrice);\n\n        // add user and ccid\n        uploadList[sender].push(_ccid);  // push ccid to user upload list\n\n        //recieve reward\n\n\n        // emit event\n\n        emit ContentRegistrated(sender, _ccid, _version, _ccidPrice, time);\n    }\n\n    /***************************\n       UPDATE CONTENT\n    ***************************/\n    function updateContent(address sender, string memory _ccid, string memory _version, string memory _referenceId, uint state, uint price, uint time)\n    public returns(bool)\n    {\n      require(contentStorage.onlySeller(_ccid, sender));\n      require(contentStorage.checkVersionExists(_version) == false);  // check for version existance\n\n      contentStorage.contentUpdate(sender, _ccid, _version, _referenceId, state, price, time);\n\n      emit ContentUpdated(sender, _ccid, _version, price, time);\n\n\n      return true;\n\n    }\n    /***************************\n       MODIFY CONTENT\n    ***************************/\n    function modifyContent(address sender, string memory _ccid, uint state, uint price, uint time)\n\n    public returns(bool)\n    {\n      require(contentStorage.onlySeller(_ccid, sender));\n      contentStorage.modifyContent(_ccid, state, price, time);\n\n\n      emit ContentModified(sender, _ccid, time);\n      return true;\n    }\n\n    /***************************\n       MODIFY VERSION CONTENT\n    ***************************/\n    function modifyVersion(address sender, string memory _ccid, string memory _version, uint state, uint price, uint time)\n\n    public returns(bool)\n\n    {\n      require(contentStorage.onlySeller(_ccid, sender));\n      require(contentStorage.checkVersionExists(_version));\n\n      contentStorage.modifyVersionContent(_version, state, price, time);\n\n      emit VersionModified(sender, _version, time);\n\n    }\n\n    /***************************\n       REMOVE CONTENT\n    ***************************/\n    function removeContent(address sender, string memory _ccid, uint _time)\n    public\n    //onlySeller(_ccid, sender)\n    returns(bool)\n\n    {\n      require(contentStorage.onlySeller(_ccid, sender));\n      contentStorage.removeContent(_ccid, _time);\n\n\n    emit ContentDeleted(sender, _time);\n    }\n\n    /***************************\n       REMOVE VERSION CONTENT\n    ***************************/\n    function removeVersion(address sender, string memory _ccid, string memory _version, uint time)\n    public\n    //onlySeller(_version, sender)\n    returns(bool)\n    {\n      require(contentStorage.onlySeller(_version, sender));\n      require(contentStorage.checkContentVersions(_ccid, _version), \"version should exists\");\n      contentStorage.removeVersion(_version, time);\n\n      emit VersionContentDeleted(sender, _version, time);\n\n      return true;\n\n    }\n\n    // purchaseContent function\n    /* function purchaseContent(address sender,  string memory _id, uint _price, uint _time)\n    public\n    // change price to msg.value when payment made with token\n    onlyBuyer(_id, sender)\n    checkPrice(_id, _price)\n    checkUserPurchase(_id, sender)\n  //  payable\n\n    {\n        // push user liked content to user history\n        userPurchases[sender].push(Purchase({\n            id: _id,\n            time : _time\n        }));\n\n       purchasedContent[sender][_id] = true;\n\n        emit VersionPurchsed(sender, _id, _price, _time);\n\n       // check if id located in complexContents array\n        if (bytes(complexContents[_id].fileLink).length != 0)\n        {\n            // add price to income parameter\n            complexContents[_id].income += _price;\n\n        }\n\n        else\n        {\n            versions[_id].versionPrice += _price;\n        }\n\n         // transfer token to seller address\n        // this function called after buyer receives content\n        // seller gets deposited token\n        //  versions[_id].uploader.transfer(address(msg.value).balance);\n    } */\n\n    /* function getVersionIncome(address sender, string memory _version)\n    public view\n    onlySeller(_version, sender)\n    returns(uint income)\n    {\n      //  require(checkVersionExists(_version));\n        //return total income of version\n        return(versions[_version].income);\n    }\n\n\n    function getContentIncome(address sender, string memory _ccid)\n    public view\n    onlySeller(_ccid, sender)\n    returns(uint income)\n    {\n       // require(checkContentExists(_ccid));\n        //return total income of content\n        return(complexContents[_ccid].income);\n    }\n\n\n    function getTotalIncome(address sender, string memory _ccid)\n    public view\n    onlySeller(_ccid, sender)\n    returns(uint totalIncome)\n    {\n      //  require(checkContentExists(_ccid));\n        //return total income of content\n        return(complexContents[_ccid].totalIncome);\n    } */\n\n\n}\n",
  "sourcePath": "/Users/aziz/Desktop/chainlink-hack-api/truffle/contracts/UserContracts.sol",
  "compiler": {
    "name": "solc",
    "version": "0.5.12+commit.7709ece9.Emscripten.clang"
  },
  "schemaVersion": "3.0.19",
  "updatedAt": "2020-01-02T04:44:04.136Z",
  "networkType": "ethereum",
  "devdoc": {
    "methods": {}
  },
  "userdoc": {
    "methods": {
      "UploadContent(address,string,string,string,string,uint256,uint256,uint256,string,uint256,uint256)": {
        "notice": "************************* CONTENT REGISTRATION**************************"
      },
      "modifyContent(address,string,uint256,uint256,uint256)": {
        "notice": "************************* MODIFY CONTENT**************************"
      },
      "modifyVersion(address,string,string,uint256,uint256,uint256)": {
        "notice": "************************* MODIFY VERSION CONTENT**************************"
      },
      "removeContent(address,string,uint256)": {
        "notice": "************************* REMOVE CONTENT**************************"
      },
      "removeVersion(address,string,string,uint256)": {
        "notice": "************************* REMOVE VERSION CONTENT**************************"
      },
      "updateContent(address,string,string,string,uint256,uint256,uint256)": {
        "notice": "************************* UPDATE CONTENT**************************"
      }
    }
  }
}